{
  "_format": "hh-sol-artifact-1",
  "contractName": "SovryFactory",
  "sourceName": "contracts/SovryFactory.sol",
  "abi": [
    {
      "inputs": [
        {
          "internalType": "address",
          "name": "wip",
          "type": "address"
        },
        {
          "internalType": "address",
          "name": "admin",
          "type": "address"
        },
        {
          "internalType": "address",
          "name": "initialFeeToSetter",
          "type": "address"
        },
        {
          "internalType": "address",
          "name": "initialFeeTo",
          "type": "address"
        }
      ],
      "stateMutability": "nonpayable",
      "type": "constructor"
    },
    {
      "inputs": [],
      "name": "AccessControlBadConfirmation",
      "type": "error"
    },
    {
      "inputs": [
        {
          "internalType": "address",
          "name": "account",
          "type": "address"
        },
        {
          "internalType": "bytes32",
          "name": "neededRole",
          "type": "bytes32"
        }
      ],
      "name": "AccessControlUnauthorizedAccount",
      "type": "error"
    },
    {
      "inputs": [],
      "name": "IdenticalAddresses",
      "type": "error"
    },
    {
      "inputs": [],
      "name": "PairCreationFailed",
      "type": "error"
    },
    {
      "inputs": [],
      "name": "PairExists",
      "type": "error"
    },
    {
      "inputs": [],
      "name": "ZeroAddress",
      "type": "error"
    },
    {
      "anonymous": false,
      "inputs": [
        {
          "indexed": true,
          "internalType": "address",
          "name": "previousSetter",
          "type": "address"
        },
        {
          "indexed": true,
          "internalType": "address",
          "name": "newSetter",
          "type": "address"
        }
      ],
      "name": "FeeToSetterUpdated",
      "type": "event"
    },
    {
      "anonymous": false,
      "inputs": [
        {
          "indexed": true,
          "internalType": "address",
          "name": "newFeeTo",
          "type": "address"
        }
      ],
      "name": "FeeToUpdated",
      "type": "event"
    },
    {
      "anonymous": false,
      "inputs": [
        {
          "indexed": true,
          "internalType": "address",
          "name": "token0",
          "type": "address"
        },
        {
          "indexed": true,
          "internalType": "address",
          "name": "token1",
          "type": "address"
        },
        {
          "indexed": false,
          "internalType": "address",
          "name": "pair",
          "type": "address"
        },
        {
          "indexed": false,
          "internalType": "uint256",
          "name": "length",
          "type": "uint256"
        }
      ],
      "name": "PairCreated",
      "type": "event"
    },
    {
      "anonymous": false,
      "inputs": [
        {
          "indexed": true,
          "internalType": "bytes32",
          "name": "role",
          "type": "bytes32"
        },
        {
          "indexed": true,
          "internalType": "bytes32",
          "name": "previousAdminRole",
          "type": "bytes32"
        },
        {
          "indexed": true,
          "internalType": "bytes32",
          "name": "newAdminRole",
          "type": "bytes32"
        }
      ],
      "name": "RoleAdminChanged",
      "type": "event"
    },
    {
      "anonymous": false,
      "inputs": [
        {
          "indexed": true,
          "internalType": "bytes32",
          "name": "role",
          "type": "bytes32"
        },
        {
          "indexed": true,
          "internalType": "address",
          "name": "account",
          "type": "address"
        },
        {
          "indexed": true,
          "internalType": "address",
          "name": "sender",
          "type": "address"
        }
      ],
      "name": "RoleGranted",
      "type": "event"
    },
    {
      "anonymous": false,
      "inputs": [
        {
          "indexed": true,
          "internalType": "bytes32",
          "name": "role",
          "type": "bytes32"
        },
        {
          "indexed": true,
          "internalType": "address",
          "name": "account",
          "type": "address"
        },
        {
          "indexed": true,
          "internalType": "address",
          "name": "sender",
          "type": "address"
        }
      ],
      "name": "RoleRevoked",
      "type": "event"
    },
    {
      "inputs": [],
      "name": "DEFAULT_ADMIN_ROLE",
      "outputs": [
        {
          "internalType": "bytes32",
          "name": "",
          "type": "bytes32"
        }
      ],
      "stateMutability": "view",
      "type": "function"
    },
    {
      "inputs": [],
      "name": "FEE_TO_SETTER_ROLE",
      "outputs": [
        {
          "internalType": "bytes32",
          "name": "",
          "type": "bytes32"
        }
      ],
      "stateMutability": "view",
      "type": "function"
    },
    {
      "inputs": [],
      "name": "INIT_CODE_PAIR_HASH",
      "outputs": [
        {
          "internalType": "bytes32",
          "name": "",
          "type": "bytes32"
        }
      ],
      "stateMutability": "view",
      "type": "function"
    },
    {
      "inputs": [],
      "name": "WIP",
      "outputs": [
        {
          "internalType": "address",
          "name": "",
          "type": "address"
        }
      ],
      "stateMutability": "view",
      "type": "function"
    },
    {
      "inputs": [
        {
          "internalType": "uint256",
          "name": "",
          "type": "uint256"
        }
      ],
      "name": "allPairs",
      "outputs": [
        {
          "internalType": "address",
          "name": "",
          "type": "address"
        }
      ],
      "stateMutability": "view",
      "type": "function"
    },
    {
      "inputs": [],
      "name": "allPairsLength",
      "outputs": [
        {
          "internalType": "uint256",
          "name": "",
          "type": "uint256"
        }
      ],
      "stateMutability": "view",
      "type": "function"
    },
    {
      "inputs": [
        {
          "internalType": "address",
          "name": "tokenA",
          "type": "address"
        },
        {
          "internalType": "address",
          "name": "tokenB",
          "type": "address"
        }
      ],
      "name": "createPair",
      "outputs": [
        {
          "internalType": "address",
          "name": "pair",
          "type": "address"
        }
      ],
      "stateMutability": "nonpayable",
      "type": "function"
    },
    {
      "inputs": [],
      "name": "feeTo",
      "outputs": [
        {
          "internalType": "address",
          "name": "",
          "type": "address"
        }
      ],
      "stateMutability": "view",
      "type": "function"
    },
    {
      "inputs": [],
      "name": "feeToSetter",
      "outputs": [
        {
          "internalType": "address",
          "name": "",
          "type": "address"
        }
      ],
      "stateMutability": "view",
      "type": "function"
    },
    {
      "inputs": [
        {
          "internalType": "address",
          "name": "",
          "type": "address"
        },
        {
          "internalType": "address",
          "name": "",
          "type": "address"
        }
      ],
      "name": "getPair",
      "outputs": [
        {
          "internalType": "address",
          "name": "",
          "type": "address"
        }
      ],
      "stateMutability": "view",
      "type": "function"
    },
    {
      "inputs": [
        {
          "internalType": "bytes32",
          "name": "role",
          "type": "bytes32"
        }
      ],
      "name": "getRoleAdmin",
      "outputs": [
        {
          "internalType": "bytes32",
          "name": "",
          "type": "bytes32"
        }
      ],
      "stateMutability": "view",
      "type": "function"
    },
    {
      "inputs": [
        {
          "internalType": "bytes32",
          "name": "role",
          "type": "bytes32"
        },
        {
          "internalType": "address",
          "name": "account",
          "type": "address"
        }
      ],
      "name": "grantRole",
      "outputs": [],
      "stateMutability": "nonpayable",
      "type": "function"
    },
    {
      "inputs": [
        {
          "internalType": "bytes32",
          "name": "role",
          "type": "bytes32"
        },
        {
          "internalType": "address",
          "name": "account",
          "type": "address"
        }
      ],
      "name": "hasRole",
      "outputs": [
        {
          "internalType": "bool",
          "name": "",
          "type": "bool"
        }
      ],
      "stateMutability": "view",
      "type": "function"
    },
    {
      "inputs": [
        {
          "internalType": "bytes32",
          "name": "role",
          "type": "bytes32"
        },
        {
          "internalType": "address",
          "name": "callerConfirmation",
          "type": "address"
        }
      ],
      "name": "renounceRole",
      "outputs": [],
      "stateMutability": "nonpayable",
      "type": "function"
    },
    {
      "inputs": [
        {
          "internalType": "bytes32",
          "name": "role",
          "type": "bytes32"
        },
        {
          "internalType": "address",
          "name": "account",
          "type": "address"
        }
      ],
      "name": "revokeRole",
      "outputs": [],
      "stateMutability": "nonpayable",
      "type": "function"
    },
    {
      "inputs": [
        {
          "internalType": "address",
          "name": "newFeeTo",
          "type": "address"
        }
      ],
      "name": "setFeeTo",
      "outputs": [],
      "stateMutability": "nonpayable",
      "type": "function"
    },
    {
      "inputs": [
        {
          "internalType": "address",
          "name": "newSetter",
          "type": "address"
        }
      ],
      "name": "setFeeToSetter",
      "outputs": [],
      "stateMutability": "nonpayable",
      "type": "function"
    },
    {
      "inputs": [
        {
          "internalType": "bytes4",
          "name": "interfaceId",
          "type": "bytes4"
        }
      ],
      "name": "supportsInterface",
      "outputs": [
        {
          "internalType": "bool",
          "name": "",
          "type": "bool"
        }
      ],
      "stateMutability": "view",
      "type": "function"
    }
  ],
  "bytecode": "0x60c060405234801561001057600080fd5b50604051615ed0380380615ed083398101604081905261002f9161023d565b6001600160a01b038416158061004c57506001600160a01b038316155b8061005e57506001600160a01b038216155b1561007c5760405163d92e233d60e01b815260040160405180910390fd5b6001600160a01b03841660805260405161009860208201610214565b601f1982820381018352601f9091011660405280516020919091012060a0526100c2600084610168565b50600280546001600160a01b0319166001600160a01b0384161790556101087fbe42fe8e402b3e3f1410cd7f74b459d74f020de1438ea4323844b1b10e64788283610168565b506040516001600160a01b038316906000907fcca89bc909e02b7f333d20ee52583360f8ede8c27d76774f1e1c5935576a7f72908290a3600180546001600160a01b0319166001600160a01b039290921691909117905550610291915050565b6000828152602081815260408083206001600160a01b038516845290915281205460ff1661020a576000838152602081815260408083206001600160a01b03861684529091529020805460ff191660011790556101c23390565b6001600160a01b0316826001600160a01b0316847f2f8788117e7eff1d82e926ec794901d17c78024a50270940304540a733656f0d60405160405180910390a450600161020e565b5060005b92915050565b61286c8061366483390190565b80516001600160a01b038116811461023857600080fd5b919050565b6000806000806080858703121561025357600080fd5b61025c85610221565b935061026a60208601610221565b925061027860408601610221565b915061028660608601610221565b905092959194509250565b60805160a0516133a06102c460003960006101fa01526000818161023401528181610528015261056301526133a06000f3fe608060405234801561001057600080fd5b50600436106101165760003560e01c806391d14854116100a2578063c9c6539611610071578063c9c6539614610271578063c9d5291a14610284578063d547741f14610299578063e6a43905146102ac578063f46901ed146102e057600080fd5b806391d148541461021c5780639ba879cf1461022f578063a217fddf14610256578063a2e74af61461025e57600080fd5b8063248a9ca3116100e9578063248a9ca3146101945780632f2ff15d146101c557806336568abe146101da578063574f2ba3146101ed5780635855a25a146101f557600080fd5b8063017e7e581461011b57806301ffc9a71461014b578063094b74151461016e5780631e3dd18b14610181575b600080fd5b60015461012e906001600160a01b031681565b6040516001600160a01b0390911681526020015b60405180910390f35b61015e610159366004610a07565b6102f3565b6040519015158152602001610142565b60025461012e906001600160a01b031681565b61012e61018f366004610a38565b61032a565b6101b76101a2366004610a38565b60009081526020819052604090206001015490565b604051908152602001610142565b6101d86101d3366004610a6d565b610354565b005b6101d86101e8366004610a6d565b61037f565b6004546101b7565b6101b77f000000000000000000000000000000000000000000000000000000000000000081565b61015e61022a366004610a6d565b6103b7565b61012e7f000000000000000000000000000000000000000000000000000000000000000081565b6101b7600081565b6101d861026c366004610a99565b6103e0565b61012e61027f366004610ab4565b6104b7565b6101b760008051602061334b83398151915281565b6101d86102a7366004610a6d565b61082b565b61012e6102ba366004610ab4565b60036020908152600092835260408084209091529082529020546001600160a01b031681565b6101d86102ee366004610a99565b610850565b60006001600160e01b03198216637965db0b60e01b148061032457506301ffc9a760e01b6001600160e01b03198316145b92915050565b6004818154811061033a57600080fd5b6000918252602090912001546001600160a01b0316905081565b60008281526020819052604090206001015461036f816108b3565b61037983836108c0565b50505050565b6001600160a01b03811633146103a85760405163334bd91960e11b815260040160405180910390fd5b6103b28282610952565b505050565b6000918252602082815260408084206001600160a01b0393909316845291905290205460ff1690565b60006103eb816108b3565b6001600160a01b0382166104125760405163d92e233d60e01b815260040160405180910390fd5b6002546001600160a01b0316801561043e5761043c60008051602061334b83398151915282610952565b505b600280546001600160a01b0319166001600160a01b03851617905561047160008051602061334b833981519152846108c0565b50826001600160a01b0316816001600160a01b03167fcca89bc909e02b7f333d20ee52583360f8ede8c27d76774f1e1c5935576a7f7260405160405180910390a3505050565b6000816001600160a01b0316836001600160a01b0316036104eb57604051630bd969eb60e41b815260040160405180910390fd5b6001600160a01b038316158061050857506001600160a01b038216155b156105265760405163d92e233d60e01b815260040160405180910390fd5b7f00000000000000000000000000000000000000000000000000000000000000006001600160a01b0316836001600160a01b0316148061059757507f00000000000000000000000000000000000000000000000000000000000000006001600160a01b0316826001600160a01b0316145b6105e85760405162461bcd60e51b815260206004820152601c60248201527f536f7672793a2050616972206d75737420696e636c756465205749500000000060448201526064015b60405180910390fd5b600080836001600160a01b0316856001600160a01b03161061060b57838561060e565b84845b6001600160a01b0380831660009081526003602090815260408083208486168452909152902054929450909250161561065a57604051633d77e89160e01b815260040160405180910390fd5b60006040518060200161066c906109fa565b601f1982820381018352601f9091011660408190526bffffffffffffffffffffffff19606086811b8216602084015285901b166034820152909150600090604801604051602081830303815290604052805190602001209050808251602084016000f594506001600160a01b0385166106f85760405163e1745f8360e01b815260040160405180910390fd5b60405163485cc95560e01b81526001600160a01b038581166004830152848116602483015286169063485cc95590604401600060405180830381600087803b15801561074357600080fd5b505af1158015610757573d6000803e3d6000fd5b505050506001600160a01b0384811660008181526003602081815260408084208987168086529083528185208054978d166001600160a01b031998891681179091559383528185208686528352818520805488168517905560048054600181018255958190527f8a35acfbc15ff81a39ae7d344fd709f28e8600b4aa8c65c6b64bfe7fe36bd19b9095018054909716841790965592548351928352908201527f0d3648bd0f6ba80134a33ba9275ac585d9d315f0ad8355cddefde31afa28d0e9910160405180910390a35050505092915050565b600082815260208190526040902060010154610846816108b3565b6103798383610952565b60008051602061334b833981519152610868816108b3565b600180546001600160a01b0319166001600160a01b0384169081179091556040517f9887df018dfa75103faf0f1388028e55a1124783c285d8d2cbcf62a067a6b84490600090a25050565b6108bd81336109bd565b50565b60006108cc83836103b7565b61094a576000838152602081815260408083206001600160a01b03861684529091529020805460ff191660011790556109023390565b6001600160a01b0316826001600160a01b0316847f2f8788117e7eff1d82e926ec794901d17c78024a50270940304540a733656f0d60405160405180910390a4506001610324565b506000610324565b600061095e83836103b7565b1561094a576000838152602081815260408083206001600160a01b0386168085529252808320805460ff1916905551339286917ff6391f5c32d9c69d2a47ea670b442974b53935d1edc7fd64eb21e047a839171b9190a4506001610324565b6109c782826103b7565b6109f65760405163e2517d3f60e01b81526001600160a01b0382166004820152602481018390526044016105df565b5050565b61286c80610adf83390190565b600060208284031215610a1957600080fd5b81356001600160e01b031981168114610a3157600080fd5b9392505050565b600060208284031215610a4a57600080fd5b5035919050565b80356001600160a01b0381168114610a6857600080fd5b919050565b60008060408385031215610a8057600080fd5b82359150610a9060208401610a51565b90509250929050565b600060208284031215610aab57600080fd5b610a3182610a51565b60008060408385031215610ac757600080fd5b610ad083610a51565b9150610a9060208401610a5156fe60a060405234801561001057600080fd5b506040518060400160405280600e81526020016d29b7bb393c902628102a37b5b2b760911b815250604051806040016040528060038152602001620734c560ec1b8152508160039081610063919061020a565b506004610070828261020a565b505060016007555033608081905261008a906000906100bb565b506100b57f65d7a28e3265b37a6474929f336521b332c1681b933f6cb9f3376673440d862a336100bb565b506102c8565b60008281526005602090815260408083206001600160a01b038516845290915281205460ff166101615760008381526005602090815260408083206001600160a01b03861684529091529020805460ff191660011790556101193390565b6001600160a01b0316826001600160a01b0316847f2f8788117e7eff1d82e926ec794901d17c78024a50270940304540a733656f0d60405160405180910390a4506001610165565b5060005b92915050565b634e487b7160e01b600052604160045260246000fd5b600181811c9082168061019557607f821691505b6020821081036101b557634e487b7160e01b600052602260045260246000fd5b50919050565b601f82111561020557806000526020600020601f840160051c810160208510156101e25750805b601f840160051c820191505b8181101561020257600081556001016101ee565b50505b505050565b81516001600160401b038111156102235761022361016b565b610237816102318454610181565b846101bb565b6020601f82116001811461026b57600083156102535750848201515b600019600385901b1c1916600184901b178455610202565b600084815260208120601f198516915b8281101561029b578785015182556020948501946001909201910161027b565b50848210156102b95786840151600019600387901b60f8161c191681555b50505050600190811b01905550565b60805161257b6102f16000396000818161045b015281816109ba01526119e2015261257b6000f3fe608060405234801561001057600080fd5b50600436106102115760003560e01c80636a62784211610125578063ba9a7a56116100ad578063d547741f1161007c578063d547741f14610490578063dd62ed3e146104a3578063e63ab1e9146104dc578063fccc281314610503578063fff6cae91461050c57600080fd5b8063ba9a7a561461043a578063bc25cf7714610443578063c45a015514610456578063d21220a71461047d57600080fd5b806389afcb44116100f457806389afcb44146103dc57806391d148541461040457806395d89b4114610417578063a217fddf1461041f578063a9059cbb1461042757600080fd5b80636a6278421461038f57806370a08231146103a25780637464fc3d146103cb5780638456cb59146103d457600080fd5b8063248a9ca3116101a85780633f4ba83a116101775780633f4ba83a14610357578063485cc9551461035f5780635909c0d5146103725780635a3d54931461037b5780635c975abb1461038457600080fd5b8063248a9ca3146102ff5780632f2ff15d14610322578063313ce5671461033557806336568abe1461034457600080fd5b8063095ea7b3116101e4578063095ea7b31461029c5780630dfe1681146102af57806318160ddd146102da57806323b872dd146102ec57600080fd5b806301ffc9a714610216578063022c0d9f1461023e57806306fdde03146102535780630902f1ac14610268575b600080fd5b6102296102243660046120ef565b610514565b60405190151581526020015b60405180910390f35b61025161024c36600461212e565b61054b565b005b61025b61081f565b60405161023591906121ea565b6102706108b1565b604080516001600160701b03948516815293909216602084015263ffffffff1690820152606001610235565b6102296102aa36600461221d565b6108db565b6008546102c2906001600160a01b031681565b6040516001600160a01b039091168152602001610235565b6002545b604051908152602001610235565b6102296102fa366004612249565b6108f3565b6102de61030d36600461228a565b60009081526005602052604090206001015490565b6102516103303660046122a3565b610917565b60405160128152602001610235565b6102516103523660046122a3565b610942565b61025161097a565b61025161036d3660046122d3565b6109af565b6102de600b5481565b6102de600c5481565b60065460ff16610229565b6102de61039d366004612301565b610ab6565b6102de6103b0366004612301565b6001600160a01b031660009081526020819052604090205490565b6102de600d5481565b610251610d97565b6103ef6103ea366004612301565b610dc9565b60408051928352602083019190915201610235565b6102296104123660046122a3565b61115a565b61025b611185565b6102de600081565b61022961043536600461221d565b611194565b6102de6103e881565b610251610451366004612301565b6111a2565b6102c27f000000000000000000000000000000000000000000000000000000000000000081565b6009546102c2906001600160a01b031681565b61025161049e3660046122a3565b611298565b6102de6104b13660046122d3565b6001600160a01b03918216600090815260016020908152604080832093909416825291909152205490565b6102de7f65d7a28e3265b37a6474929f336521b332c1681b933f6cb9f3376673440d862a81565b6102c261dead81565b6102516112bd565b60006001600160e01b03198216637965db0b60e01b148061054557506301ffc9a760e01b6001600160e01b03198316145b92915050565b6105536113c7565b61055b6113f1565b600085118061056a5750600084115b6105c55760405162461bcd60e51b815260206004820152602160248201527f536f7672793a20494e53554646494349454e545f4f55545055545f414d4f554e6044820152601560fa1b60648201526084015b60405180910390fd5b6000806105d06108b1565b5091509150816001600160701b0316871080156105f55750806001600160701b031686105b6106415760405162461bcd60e51b815260206004820152601d60248201527f536f7672793a20494e53554646494349454e545f4c495155494449545900000060448201526064016105bc565b600080610651878a8a8989611415565b9092509050600061066b8a6001600160701b038716612334565b8311610678576000610695565b61068b8a6001600160701b038716612334565b6106959084612334565b905060006106ac8a6001600160701b038716612334565b83116106b95760006106d6565b6106cc8a6001600160701b038716612334565b6106d69084612334565b905060008211806106e75750600081115b6107335760405162461bcd60e51b815260206004820181905260248201527f536f7672793a20494e53554646494349454e545f494e5055545f414d4f554e5460448201526064016105bc565b600082600302856103e802039050600082600302856103e802039050866001600160701b0316886001600160701b031602620f42400281830210156107a55760405162461bcd60e51b8152602060048201526008602482015267536f7672793a204b60c01b60448201526064016105bc565b50506107b384848888611603565b60408051838152602081018390529081018c9052606081018b90526001600160a01b038a169033907fd78ad95fa46c994b6551d0da85fc275fe613ce37657fb8d5e3d130840159d8229060800160405180910390a35050505050506108186001600755565b5050505050565b60606003805461082e90612347565b80601f016020809104026020016040519081016040528092919081815260200182805461085a90612347565b80156108a75780601f1061087c576101008083540402835291602001916108a7565b820191906000526020600020905b81548152906001019060200180831161088a57829003601f168201915b5050505050905090565b600a546001600160701b0380821692600160701b830490911691600160e01b900463ffffffff1690565b6000336108e981858561179b565b5060019392505050565b6000336109018582856117a8565b61090c858585611821565b506001949350505050565b60008281526005602052604090206001015461093281611880565b61093c838361188a565b50505050565b6001600160a01b038116331461096b5760405163334bd91960e11b815260040160405180910390fd5b610975828261191e565b505050565b7f65d7a28e3265b37a6474929f336521b332c1681b933f6cb9f3376673440d862a6109a481611880565b6109ac61198b565b50565b336001600160a01b037f00000000000000000000000000000000000000000000000000000000000000001614610a1a5760405162461bcd60e51b815260206004820152601060248201526f29b7bb393c9d102327a92124a22222a760811b60448201526064016105bc565b6008546001600160a01b0316158015610a3c57506009546001600160a01b0316155b610a885760405162461bcd60e51b815260206004820152601a60248201527f536f7672793a20414c52454144595f494e495449414c495a454400000000000060448201526064016105bc565b600880546001600160a01b039384166001600160a01b03199182161790915560098054929093169116179055565b6000610ac06113c7565b610ac86113f1565b600080610ad36108b1565b506008546040516370a0823160e01b81523060048201529294509092506000916001600160a01b03909116906370a0823190602401602060405180830381865afa158015610b25573d6000803e3d6000fd5b505050506040513d601f19601f82011682018060405250810190610b499190612381565b6009546040516370a0823160e01b81523060048201529192506000916001600160a01b03909116906370a0823190602401602060405180830381865afa158015610b97573d6000803e3d6000fd5b505050506040513d601f19601f82011682018060405250810190610bbb9190612381565b90506000610bd26001600160701b03861684612334565b90506000610be96001600160701b03861684612334565b9050600082118015610bfb5750600081115b610c175760405162461bcd60e51b81526004016105bc9061239a565b6000610c2387876119dd565b90506000610c3060025490565b905080600003610c93576000610c4e610c4985876123de565b611b40565b90506103e88111610c715760405162461bcd60e51b81526004016105bc9061239a565b610c7d6103e882612334565b9950610c8d61dead6103e8611c99565b50610ce6565b60006001600160701b038916610ca983876123de565b610cb3919061240b565b905060006001600160701b038916610ccb84876123de565b610cd5919061240b565b9050610ce18282611cd3565b9a5050505b60008911610d065760405162461bcd60e51b81526004016105bc9061239a565b610d108a8a611c99565b610d1c86868a8a611603565b8115610d4557600a54610d41906001600160701b03600160701b8204811691166123de565b600d555b604080518581526020810185905233917f4c209b5fc8ad50758f13e2e1088ba56a560dff690a1c6fef26394f4c03821c4f910160405180910390a25050505050505050610d926001600755565b919050565b7f65d7a28e3265b37a6474929f336521b332c1681b933f6cb9f3376673440d862a610dc181611880565b6109ac611ce6565b600080610dd46113c7565b600080610ddf6108b1565b506008546009546040516370a0823160e01b81523060048201529395509193506001600160a01b039081169291169060009083906370a0823190602401602060405180830381865afa158015610e39573d6000803e3d6000fd5b505050506040513d601f19601f82011682018060405250810190610e5d9190612381565b6040516370a0823160e01b81523060048201529091506000906001600160a01b038416906370a0823190602401602060405180830381865afa158015610ea7573d6000803e3d6000fd5b505050506040513d601f19601f82011682018060405250810190610ecb9190612381565b3060009081526020819052604090205490915080610f215760405162461bcd60e51b8152602060048201526013602482015272536f7672793a204e4f5f4c495155494449545960681b60448201526064016105bc565b6000610f2d88886119dd565b90506000610f3a60025490565b905080610f4786856123de565b610f51919061240b565b9a5080610f5e85856123de565b610f68919061240b565b995060008b118015610f7a575060008a115b610fd25760405162461bcd60e51b8152602060048201526024808201527f536f7672793a20494e53554646494349454e545f4c49515549444954595f42556044820152631493915160e21b60648201526084016105bc565b610fdc3084611d23565b610fe7878d8d611d59565b610ff2868d8c611d59565b6040516370a0823160e01b81523060048201526001600160a01b038816906370a0823190602401602060405180830381865afa158015611036573d6000803e3d6000fd5b505050506040513d601f19601f8201168201806040525081019061105a9190612381565b6040516370a0823160e01b81523060048201529095506001600160a01b038716906370a0823190602401602060405180830381865afa1580156110a1573d6000803e3d6000fd5b505050506040513d601f19601f820116820180604052508101906110c59190612381565b93506110d385858b8b611603565b81156110fc57600a546110f8906001600160701b03600160701b8204811691166123de565b600d555b604080518c8152602081018c90526001600160a01b038e169133917fdccd412f0b1252819cb1fd330b93224ca42612892bb3f4f789976e6d81936496910160405180910390a35050505050505050506111556001600755565b915091565b60009182526005602090815260408084206001600160a01b0393909316845291905290205460ff1690565b60606004805461082e90612347565b6000336108e9818585611821565b6111aa6113c7565b600854600954600a546040516370a0823160e01b81523060048201526001600160a01b03938416939092169161124491849186916001600160701b03169083906370a08231906024015b602060405180830381865afa158015611211573d6000803e3d6000fd5b505050506040513d601f19601f820116820180604052508101906112359190612381565b61123f9190612334565b611d59565b600a546040516370a0823160e01b815230600482015261128c9183918691600160701b90046001600160701b0316906001600160a01b038416906370a08231906024016111f4565b50506109ac6001600755565b6000828152600560205260409020600101546112b381611880565b61093c838361191e565b6112c56113c7565b6008546040516370a0823160e01b81523060048201526113bb916001600160a01b0316906370a0823190602401602060405180830381865afa15801561130f573d6000803e3d6000fd5b505050506040513d601f19601f820116820180604052508101906113339190612381565b6009546040516370a0823160e01b81523060048201526001600160a01b03909116906370a0823190602401602060405180830381865afa15801561137b573d6000803e3d6000fd5b505050506040513d601f19601f8201168201806040525081019061139f9190612381565b600a546001600160701b0380821691600160701b900416611603565b6113c56001600755565b565b6002600754036113ea57604051633ee5aeb560e01b815260040160405180910390fd5b6002600755565b60065460ff16156113c55760405163d93c066560e01b815260040160405180910390fd5b60085460095460009182916001600160a01b039182169190811690891682148015906114535750806001600160a01b0316896001600160a01b031614155b6114935760405162461bcd60e51b8152602060048201526011602482015270536f7672793a20494e56414c49445f544f60781b60448201526064016105bc565b87156114a4576114a4828a8a611d59565b86156114b5576114b5818a89611d59565b841561152257604051639db748cb60e01b81526001600160a01b038a1690639db748cb906114ef9033908c908c908c908c9060040161241f565b600060405180830381600087803b15801561150957600080fd5b505af115801561151d573d6000803e3d6000fd5b505050505b6040516370a0823160e01b81523060048201526001600160a01b038316906370a0823190602401602060405180830381865afa158015611566573d6000803e3d6000fd5b505050506040513d601f19601f8201168201806040525081019061158a9190612381565b6040516370a0823160e01b81523060048201529094506001600160a01b038216906370a0823190602401602060405180830381865afa1580156115d1573d6000803e3d6000fd5b505050506040513d601f19601f820116820180604052508101906115f59190612381565b925050509550959350505050565b6001600160701b03841180159061162157506001600160701b038311155b61165f5760405162461bcd60e51b815260206004820152600f60248201526e536f7672793a204f564552464c4f5760881b60448201526064016105bc565b60006116706401000000004261246b565b600a5490915063ffffffff600160e01b90910481168203908116158015906116a057506001600160701b03841615155b80156116b457506001600160701b03831615155b1561171f578063ffffffff166116dc856116cd86611e66565b6001600160e01b031690611e7f565b600b80546001600160e01b03929092169290920201905563ffffffff8116611707846116cd87611e66565b600c80546001600160e01b0392909216929092020190555b506001600160701b03848116600160701b90810263ffffffff8416600160e01b026001600160e01b0319168884161717600a8190556040805182851681529290910490921660208201527f1c411e9a96e071241c2f21f7726b17ae89e3cab4c78be50e062b03a9fffbbad1910160405180910390a15050505050565b6109758383836001611e94565b6001600160a01b0383811660009081526001602090815260408083209386168352929052205460001981101561093c578181101561181257604051637dc7a0d960e11b81526001600160a01b038416600482015260248101829052604481018390526064016105bc565b61093c84848484036000611e94565b6001600160a01b03831661184b57604051634b637e8f60e11b8152600060048201526024016105bc565b6001600160a01b0382166118755760405163ec442f0560e01b8152600060048201526024016105bc565b610975838383611f69565b6109ac8133612093565b6000611896838361115a565b6119165760008381526005602090815260408083206001600160a01b03861684529091529020805460ff191660011790556118ce3390565b6001600160a01b0316826001600160a01b0316847f2f8788117e7eff1d82e926ec794901d17c78024a50270940304540a733656f0d60405160405180910390a4506001610545565b506000610545565b600061192a838361115a565b156119165760008381526005602090815260408083206001600160a01b0386168085529252808320805460ff1916905551339286917ff6391f5c32d9c69d2a47ea670b442974b53935d1edc7fd64eb21e047a839171b9190a4506001610545565b6119936120cc565b6006805460ff191690557f5db9ee0a495bf2e6ff9c91a7834c1ba4fdd244a5e8aa4e537bd38aeae4b073aa335b6040516001600160a01b03909116815260200160405180910390a1565b6000807f00000000000000000000000000000000000000000000000000000000000000006001600160a01b031663017e7e586040518163ffffffff1660e01b8152600401602060405180830381865afa158015611a3e573d6000803e3d6000fd5b505050506040513d601f19601f82011682018060405250810190611a62919061247f565b600d546001600160a01b038216158015945091925090611b2c578015611b27576000611a9d610c496001600160701b038088169089166123de565b90506000611aaa83611b40565b905080821115611b24576000611abf60025490565b90506000611acd8385612334565b611ad790836123de565b9050600083611ae78660056123de565b611af1919061249c565b905060008115611b0a57611b05828461240b565b611b0d565b60005b90508015611b1f57611b1f8882611c99565b505050505b50505b611b38565b8015611b38576000600d555b505092915050565b600060018211611b4e575090565b816001600160801b8210611b675760809190911c9060401b5b680100000000000000008210611b825760409190911c9060201b5b6401000000008210611b995760209190911c9060101b5b620100008210611bae5760109190911c9060081b5b6101008210611bc25760089190911c9060041b5b60108210611bd55760049190911c9060021b5b60048210611be15760011b5b600302600190811c90818581611bf957611bf96123f5565b048201901c90506001818581611c1157611c116123f5565b048201901c90506001818581611c2957611c296123f5565b048201901c90506001818581611c4157611c416123f5565b048201901c90506001818581611c5957611c596123f5565b048201901c90506001818581611c7157611c716123f5565b048201901c9050611c90818581611c8a57611c8a6123f5565b04821190565b90039392505050565b6001600160a01b038216611cc35760405163ec442f0560e01b8152600060048201526024016105bc565b611ccf60008383611f69565b5050565b60008282188284100282185b9392505050565b611cee6113f1565b6006805460ff191660011790557f62e78cea01bee320cd4e420270b5ea74000d11b0c9f74754ebdbfc544b05a2586119c03390565b6001600160a01b038216611d4d57604051634b637e8f60e11b8152600060048201526024016105bc565b611ccf82600083611f69565b604080516001600160a01b038481166024830152604480830185905283518084039091018152606490920183526020820180516001600160e01b031663a9059cbb60e01b1790529151600092839290871691611db591906124af565b6000604051808303816000865af19150503d8060008114611df2576040519150601f19603f3d011682016040523d82523d6000602084013e611df7565b606091505b5091509150818015611e21575080511580611e21575080806020019051810190611e2191906124cb565b6108185760405162461bcd60e51b815260206004820152601660248201527514dbdd9c9e4e881514905394d1915497d1905253115160521b60448201526064016105bc565b6000610545600160701b6001600160701b0384166124ed565b6000611cdf6001600160701b03831684612516565b6001600160a01b038416611ebe5760405163e602df0560e01b8152600060048201526024016105bc565b6001600160a01b038316611ee857604051634a1406b160e11b8152600060048201526024016105bc565b6001600160a01b038085166000908152600160209081526040808320938716835292905220829055801561093c57826001600160a01b0316846001600160a01b03167f8c5be1e5ebec7d5bd14f71427d1e84f3dd0314c0f7b2291e5b200ac8c7c3b92584604051611f5b91815260200190565b60405180910390a350505050565b6001600160a01b038316611f94578060026000828254611f89919061249c565b909155506120069050565b6001600160a01b03831660009081526020819052604090205481811015611fe75760405163391434e360e21b81526001600160a01b038516600482015260248101829052604481018390526064016105bc565b6001600160a01b03841660009081526020819052604090209082900390555b6001600160a01b03821661202257600280548290039055612041565b6001600160a01b03821660009081526020819052604090208054820190555b816001600160a01b0316836001600160a01b03167fddf252ad1be2c89b69c2b068fc378daa952ba7f163c4a11628f55a4df523b3ef8360405161208691815260200190565b60405180910390a3505050565b61209d828261115a565b611ccf5760405163e2517d3f60e01b81526001600160a01b0382166004820152602481018390526044016105bc565b60065460ff166113c557604051638dfc202b60e01b815260040160405180910390fd5b60006020828403121561210157600080fd5b81356001600160e01b031981168114611cdf57600080fd5b6001600160a01b03811681146109ac57600080fd5b60008060008060006080868803121561214657600080fd5b8535945060208601359350604086013561215f81612119565b9250606086013567ffffffffffffffff81111561217b57600080fd5b8601601f8101881361218c57600080fd5b803567ffffffffffffffff8111156121a357600080fd5b8860208284010111156121b557600080fd5b959894975092955050506020019190565b60005b838110156121e15781810151838201526020016121c9565b50506000910152565b60208152600082518060208401526122098160408501602087016121c6565b601f01601f19169190910160400192915050565b6000806040838503121561223057600080fd5b823561223b81612119565b946020939093013593505050565b60008060006060848603121561225e57600080fd5b833561226981612119565b9250602084013561227981612119565b929592945050506040919091013590565b60006020828403121561229c57600080fd5b5035919050565b600080604083850312156122b657600080fd5b8235915060208301356122c881612119565b809150509250929050565b600080604083850312156122e657600080fd5b82356122f181612119565b915060208301356122c881612119565b60006020828403121561231357600080fd5b8135611cdf81612119565b634e487b7160e01b600052601160045260246000fd5b818103818111156105455761054561231e565b600181811c9082168061235b57607f821691505b60208210810361237b57634e487b7160e01b600052602260045260246000fd5b50919050565b60006020828403121561239357600080fd5b5051919050565b60208082526024908201527f536f7672793a20494e53554646494349454e545f4c49515549444954595f4d496040820152631395115160e21b606082015260800190565b80820281158282048414176105455761054561231e565b634e487b7160e01b600052601260045260246000fd5b60008261241a5761241a6123f5565b500490565b60018060a01b038616815284602082015283604082015260806060820152816080820152818360a0830137600081830160a090810191909152601f909201601f19160101949350505050565b60008261247a5761247a6123f5565b500690565b60006020828403121561249157600080fd5b8151611cdf81612119565b808201808211156105455761054561231e565b600082516124c18184602087016121c6565b9190910192915050565b6000602082840312156124dd57600080fd5b81518015158114611cdf57600080fd5b6001600160e01b03818116838216818102909216918183048114821517611b3857611b3861231e565b60006001600160e01b0383168061252f5761252f6123f5565b6001600160e01b0392909216919091049291505056fea2646970667358221220d5af4d98ab68ffb70e2eb8127056281c1f2ae08382e46fe42d6c8fc77d67eec164736f6c634300081a0033be42fe8e402b3e3f1410cd7f74b459d74f020de1438ea4323844b1b10e647882a2646970667358221220ef18d878be5feff3d27755db61a9399761275ecb353dbad6da74b8b7f48d29c264736f6c634300081a003360a060405234801561001057600080fd5b506040518060400160405280600e81526020016d29b7bb393c902628102a37b5b2b760911b815250604051806040016040528060038152602001620734c560ec1b8152508160039081610063919061020a565b506004610070828261020a565b505060016007555033608081905261008a906000906100bb565b506100b57f65d7a28e3265b37a6474929f336521b332c1681b933f6cb9f3376673440d862a336100bb565b506102c8565b60008281526005602090815260408083206001600160a01b038516845290915281205460ff166101615760008381526005602090815260408083206001600160a01b03861684529091529020805460ff191660011790556101193390565b6001600160a01b0316826001600160a01b0316847f2f8788117e7eff1d82e926ec794901d17c78024a50270940304540a733656f0d60405160405180910390a4506001610165565b5060005b92915050565b634e487b7160e01b600052604160045260246000fd5b600181811c9082168061019557607f821691505b6020821081036101b557634e487b7160e01b600052602260045260246000fd5b50919050565b601f82111561020557806000526020600020601f840160051c810160208510156101e25750805b601f840160051c820191505b8181101561020257600081556001016101ee565b50505b505050565b81516001600160401b038111156102235761022361016b565b610237816102318454610181565b846101bb565b6020601f82116001811461026b57600083156102535750848201515b600019600385901b1c1916600184901b178455610202565b600084815260208120601f198516915b8281101561029b578785015182556020948501946001909201910161027b565b50848210156102b95786840151600019600387901b60f8161c191681555b50505050600190811b01905550565b60805161257b6102f16000396000818161045b015281816109ba01526119e2015261257b6000f3fe608060405234801561001057600080fd5b50600436106102115760003560e01c80636a62784211610125578063ba9a7a56116100ad578063d547741f1161007c578063d547741f14610490578063dd62ed3e146104a3578063e63ab1e9146104dc578063fccc281314610503578063fff6cae91461050c57600080fd5b8063ba9a7a561461043a578063bc25cf7714610443578063c45a015514610456578063d21220a71461047d57600080fd5b806389afcb44116100f457806389afcb44146103dc57806391d148541461040457806395d89b4114610417578063a217fddf1461041f578063a9059cbb1461042757600080fd5b80636a6278421461038f57806370a08231146103a25780637464fc3d146103cb5780638456cb59146103d457600080fd5b8063248a9ca3116101a85780633f4ba83a116101775780633f4ba83a14610357578063485cc9551461035f5780635909c0d5146103725780635a3d54931461037b5780635c975abb1461038457600080fd5b8063248a9ca3146102ff5780632f2ff15d14610322578063313ce5671461033557806336568abe1461034457600080fd5b8063095ea7b3116101e4578063095ea7b31461029c5780630dfe1681146102af57806318160ddd146102da57806323b872dd146102ec57600080fd5b806301ffc9a714610216578063022c0d9f1461023e57806306fdde03146102535780630902f1ac14610268575b600080fd5b6102296102243660046120ef565b610514565b60405190151581526020015b60405180910390f35b61025161024c36600461212e565b61054b565b005b61025b61081f565b60405161023591906121ea565b6102706108b1565b604080516001600160701b03948516815293909216602084015263ffffffff1690820152606001610235565b6102296102aa36600461221d565b6108db565b6008546102c2906001600160a01b031681565b6040516001600160a01b039091168152602001610235565b6002545b604051908152602001610235565b6102296102fa366004612249565b6108f3565b6102de61030d36600461228a565b60009081526005602052604090206001015490565b6102516103303660046122a3565b610917565b60405160128152602001610235565b6102516103523660046122a3565b610942565b61025161097a565b61025161036d3660046122d3565b6109af565b6102de600b5481565b6102de600c5481565b60065460ff16610229565b6102de61039d366004612301565b610ab6565b6102de6103b0366004612301565b6001600160a01b031660009081526020819052604090205490565b6102de600d5481565b610251610d97565b6103ef6103ea366004612301565b610dc9565b60408051928352602083019190915201610235565b6102296104123660046122a3565b61115a565b61025b611185565b6102de600081565b61022961043536600461221d565b611194565b6102de6103e881565b610251610451366004612301565b6111a2565b6102c27f000000000000000000000000000000000000000000000000000000000000000081565b6009546102c2906001600160a01b031681565b61025161049e3660046122a3565b611298565b6102de6104b13660046122d3565b6001600160a01b03918216600090815260016020908152604080832093909416825291909152205490565b6102de7f65d7a28e3265b37a6474929f336521b332c1681b933f6cb9f3376673440d862a81565b6102c261dead81565b6102516112bd565b60006001600160e01b03198216637965db0b60e01b148061054557506301ffc9a760e01b6001600160e01b03198316145b92915050565b6105536113c7565b61055b6113f1565b600085118061056a5750600084115b6105c55760405162461bcd60e51b815260206004820152602160248201527f536f7672793a20494e53554646494349454e545f4f55545055545f414d4f554e6044820152601560fa1b60648201526084015b60405180910390fd5b6000806105d06108b1565b5091509150816001600160701b0316871080156105f55750806001600160701b031686105b6106415760405162461bcd60e51b815260206004820152601d60248201527f536f7672793a20494e53554646494349454e545f4c495155494449545900000060448201526064016105bc565b600080610651878a8a8989611415565b9092509050600061066b8a6001600160701b038716612334565b8311610678576000610695565b61068b8a6001600160701b038716612334565b6106959084612334565b905060006106ac8a6001600160701b038716612334565b83116106b95760006106d6565b6106cc8a6001600160701b038716612334565b6106d69084612334565b905060008211806106e75750600081115b6107335760405162461bcd60e51b815260206004820181905260248201527f536f7672793a20494e53554646494349454e545f494e5055545f414d4f554e5460448201526064016105bc565b600082600302856103e802039050600082600302856103e802039050866001600160701b0316886001600160701b031602620f42400281830210156107a55760405162461bcd60e51b8152602060048201526008602482015267536f7672793a204b60c01b60448201526064016105bc565b50506107b384848888611603565b60408051838152602081018390529081018c9052606081018b90526001600160a01b038a169033907fd78ad95fa46c994b6551d0da85fc275fe613ce37657fb8d5e3d130840159d8229060800160405180910390a35050505050506108186001600755565b5050505050565b60606003805461082e90612347565b80601f016020809104026020016040519081016040528092919081815260200182805461085a90612347565b80156108a75780601f1061087c576101008083540402835291602001916108a7565b820191906000526020600020905b81548152906001019060200180831161088a57829003601f168201915b5050505050905090565b600a546001600160701b0380821692600160701b830490911691600160e01b900463ffffffff1690565b6000336108e981858561179b565b5060019392505050565b6000336109018582856117a8565b61090c858585611821565b506001949350505050565b60008281526005602052604090206001015461093281611880565b61093c838361188a565b50505050565b6001600160a01b038116331461096b5760405163334bd91960e11b815260040160405180910390fd5b610975828261191e565b505050565b7f65d7a28e3265b37a6474929f336521b332c1681b933f6cb9f3376673440d862a6109a481611880565b6109ac61198b565b50565b336001600160a01b037f00000000000000000000000000000000000000000000000000000000000000001614610a1a5760405162461bcd60e51b815260206004820152601060248201526f29b7bb393c9d102327a92124a22222a760811b60448201526064016105bc565b6008546001600160a01b0316158015610a3c57506009546001600160a01b0316155b610a885760405162461bcd60e51b815260206004820152601a60248201527f536f7672793a20414c52454144595f494e495449414c495a454400000000000060448201526064016105bc565b600880546001600160a01b039384166001600160a01b03199182161790915560098054929093169116179055565b6000610ac06113c7565b610ac86113f1565b600080610ad36108b1565b506008546040516370a0823160e01b81523060048201529294509092506000916001600160a01b03909116906370a0823190602401602060405180830381865afa158015610b25573d6000803e3d6000fd5b505050506040513d601f19601f82011682018060405250810190610b499190612381565b6009546040516370a0823160e01b81523060048201529192506000916001600160a01b03909116906370a0823190602401602060405180830381865afa158015610b97573d6000803e3d6000fd5b505050506040513d601f19601f82011682018060405250810190610bbb9190612381565b90506000610bd26001600160701b03861684612334565b90506000610be96001600160701b03861684612334565b9050600082118015610bfb5750600081115b610c175760405162461bcd60e51b81526004016105bc9061239a565b6000610c2387876119dd565b90506000610c3060025490565b905080600003610c93576000610c4e610c4985876123de565b611b40565b90506103e88111610c715760405162461bcd60e51b81526004016105bc9061239a565b610c7d6103e882612334565b9950610c8d61dead6103e8611c99565b50610ce6565b60006001600160701b038916610ca983876123de565b610cb3919061240b565b905060006001600160701b038916610ccb84876123de565b610cd5919061240b565b9050610ce18282611cd3565b9a5050505b60008911610d065760405162461bcd60e51b81526004016105bc9061239a565b610d108a8a611c99565b610d1c86868a8a611603565b8115610d4557600a54610d41906001600160701b03600160701b8204811691166123de565b600d555b604080518581526020810185905233917f4c209b5fc8ad50758f13e2e1088ba56a560dff690a1c6fef26394f4c03821c4f910160405180910390a25050505050505050610d926001600755565b919050565b7f65d7a28e3265b37a6474929f336521b332c1681b933f6cb9f3376673440d862a610dc181611880565b6109ac611ce6565b600080610dd46113c7565b600080610ddf6108b1565b506008546009546040516370a0823160e01b81523060048201529395509193506001600160a01b039081169291169060009083906370a0823190602401602060405180830381865afa158015610e39573d6000803e3d6000fd5b505050506040513d601f19601f82011682018060405250810190610e5d9190612381565b6040516370a0823160e01b81523060048201529091506000906001600160a01b038416906370a0823190602401602060405180830381865afa158015610ea7573d6000803e3d6000fd5b505050506040513d601f19601f82011682018060405250810190610ecb9190612381565b3060009081526020819052604090205490915080610f215760405162461bcd60e51b8152602060048201526013602482015272536f7672793a204e4f5f4c495155494449545960681b60448201526064016105bc565b6000610f2d88886119dd565b90506000610f3a60025490565b905080610f4786856123de565b610f51919061240b565b9a5080610f5e85856123de565b610f68919061240b565b995060008b118015610f7a575060008a115b610fd25760405162461bcd60e51b8152602060048201526024808201527f536f7672793a20494e53554646494349454e545f4c49515549444954595f42556044820152631493915160e21b60648201526084016105bc565b610fdc3084611d23565b610fe7878d8d611d59565b610ff2868d8c611d59565b6040516370a0823160e01b81523060048201526001600160a01b038816906370a0823190602401602060405180830381865afa158015611036573d6000803e3d6000fd5b505050506040513d601f19601f8201168201806040525081019061105a9190612381565b6040516370a0823160e01b81523060048201529095506001600160a01b038716906370a0823190602401602060405180830381865afa1580156110a1573d6000803e3d6000fd5b505050506040513d601f19601f820116820180604052508101906110c59190612381565b93506110d385858b8b611603565b81156110fc57600a546110f8906001600160701b03600160701b8204811691166123de565b600d555b604080518c8152602081018c90526001600160a01b038e169133917fdccd412f0b1252819cb1fd330b93224ca42612892bb3f4f789976e6d81936496910160405180910390a35050505050505050506111556001600755565b915091565b60009182526005602090815260408084206001600160a01b0393909316845291905290205460ff1690565b60606004805461082e90612347565b6000336108e9818585611821565b6111aa6113c7565b600854600954600a546040516370a0823160e01b81523060048201526001600160a01b03938416939092169161124491849186916001600160701b03169083906370a08231906024015b602060405180830381865afa158015611211573d6000803e3d6000fd5b505050506040513d601f19601f820116820180604052508101906112359190612381565b61123f9190612334565b611d59565b600a546040516370a0823160e01b815230600482015261128c9183918691600160701b90046001600160701b0316906001600160a01b038416906370a08231906024016111f4565b50506109ac6001600755565b6000828152600560205260409020600101546112b381611880565b61093c838361191e565b6112c56113c7565b6008546040516370a0823160e01b81523060048201526113bb916001600160a01b0316906370a0823190602401602060405180830381865afa15801561130f573d6000803e3d6000fd5b505050506040513d601f19601f820116820180604052508101906113339190612381565b6009546040516370a0823160e01b81523060048201526001600160a01b03909116906370a0823190602401602060405180830381865afa15801561137b573d6000803e3d6000fd5b505050506040513d601f19601f8201168201806040525081019061139f9190612381565b600a546001600160701b0380821691600160701b900416611603565b6113c56001600755565b565b6002600754036113ea57604051633ee5aeb560e01b815260040160405180910390fd5b6002600755565b60065460ff16156113c55760405163d93c066560e01b815260040160405180910390fd5b60085460095460009182916001600160a01b039182169190811690891682148015906114535750806001600160a01b0316896001600160a01b031614155b6114935760405162461bcd60e51b8152602060048201526011602482015270536f7672793a20494e56414c49445f544f60781b60448201526064016105bc565b87156114a4576114a4828a8a611d59565b86156114b5576114b5818a89611d59565b841561152257604051639db748cb60e01b81526001600160a01b038a1690639db748cb906114ef9033908c908c908c908c9060040161241f565b600060405180830381600087803b15801561150957600080fd5b505af115801561151d573d6000803e3d6000fd5b505050505b6040516370a0823160e01b81523060048201526001600160a01b038316906370a0823190602401602060405180830381865afa158015611566573d6000803e3d6000fd5b505050506040513d601f19601f8201168201806040525081019061158a9190612381565b6040516370a0823160e01b81523060048201529094506001600160a01b038216906370a0823190602401602060405180830381865afa1580156115d1573d6000803e3d6000fd5b505050506040513d601f19601f820116820180604052508101906115f59190612381565b925050509550959350505050565b6001600160701b03841180159061162157506001600160701b038311155b61165f5760405162461bcd60e51b815260206004820152600f60248201526e536f7672793a204f564552464c4f5760881b60448201526064016105bc565b60006116706401000000004261246b565b600a5490915063ffffffff600160e01b90910481168203908116158015906116a057506001600160701b03841615155b80156116b457506001600160701b03831615155b1561171f578063ffffffff166116dc856116cd86611e66565b6001600160e01b031690611e7f565b600b80546001600160e01b03929092169290920201905563ffffffff8116611707846116cd87611e66565b600c80546001600160e01b0392909216929092020190555b506001600160701b03848116600160701b90810263ffffffff8416600160e01b026001600160e01b0319168884161717600a8190556040805182851681529290910490921660208201527f1c411e9a96e071241c2f21f7726b17ae89e3cab4c78be50e062b03a9fffbbad1910160405180910390a15050505050565b6109758383836001611e94565b6001600160a01b0383811660009081526001602090815260408083209386168352929052205460001981101561093c578181101561181257604051637dc7a0d960e11b81526001600160a01b038416600482015260248101829052604481018390526064016105bc565b61093c84848484036000611e94565b6001600160a01b03831661184b57604051634b637e8f60e11b8152600060048201526024016105bc565b6001600160a01b0382166118755760405163ec442f0560e01b8152600060048201526024016105bc565b610975838383611f69565b6109ac8133612093565b6000611896838361115a565b6119165760008381526005602090815260408083206001600160a01b03861684529091529020805460ff191660011790556118ce3390565b6001600160a01b0316826001600160a01b0316847f2f8788117e7eff1d82e926ec794901d17c78024a50270940304540a733656f0d60405160405180910390a4506001610545565b506000610545565b600061192a838361115a565b156119165760008381526005602090815260408083206001600160a01b0386168085529252808320805460ff1916905551339286917ff6391f5c32d9c69d2a47ea670b442974b53935d1edc7fd64eb21e047a839171b9190a4506001610545565b6119936120cc565b6006805460ff191690557f5db9ee0a495bf2e6ff9c91a7834c1ba4fdd244a5e8aa4e537bd38aeae4b073aa335b6040516001600160a01b03909116815260200160405180910390a1565b6000807f00000000000000000000000000000000000000000000000000000000000000006001600160a01b031663017e7e586040518163ffffffff1660e01b8152600401602060405180830381865afa158015611a3e573d6000803e3d6000fd5b505050506040513d601f19601f82011682018060405250810190611a62919061247f565b600d546001600160a01b038216158015945091925090611b2c578015611b27576000611a9d610c496001600160701b038088169089166123de565b90506000611aaa83611b40565b905080821115611b24576000611abf60025490565b90506000611acd8385612334565b611ad790836123de565b9050600083611ae78660056123de565b611af1919061249c565b905060008115611b0a57611b05828461240b565b611b0d565b60005b90508015611b1f57611b1f8882611c99565b505050505b50505b611b38565b8015611b38576000600d555b505092915050565b600060018211611b4e575090565b816001600160801b8210611b675760809190911c9060401b5b680100000000000000008210611b825760409190911c9060201b5b6401000000008210611b995760209190911c9060101b5b620100008210611bae5760109190911c9060081b5b6101008210611bc25760089190911c9060041b5b60108210611bd55760049190911c9060021b5b60048210611be15760011b5b600302600190811c90818581611bf957611bf96123f5565b048201901c90506001818581611c1157611c116123f5565b048201901c90506001818581611c2957611c296123f5565b048201901c90506001818581611c4157611c416123f5565b048201901c90506001818581611c5957611c596123f5565b048201901c90506001818581611c7157611c716123f5565b048201901c9050611c90818581611c8a57611c8a6123f5565b04821190565b90039392505050565b6001600160a01b038216611cc35760405163ec442f0560e01b8152600060048201526024016105bc565b611ccf60008383611f69565b5050565b60008282188284100282185b9392505050565b611cee6113f1565b6006805460ff191660011790557f62e78cea01bee320cd4e420270b5ea74000d11b0c9f74754ebdbfc544b05a2586119c03390565b6001600160a01b038216611d4d57604051634b637e8f60e11b8152600060048201526024016105bc565b611ccf82600083611f69565b604080516001600160a01b038481166024830152604480830185905283518084039091018152606490920183526020820180516001600160e01b031663a9059cbb60e01b1790529151600092839290871691611db591906124af565b6000604051808303816000865af19150503d8060008114611df2576040519150601f19603f3d011682016040523d82523d6000602084013e611df7565b606091505b5091509150818015611e21575080511580611e21575080806020019051810190611e2191906124cb565b6108185760405162461bcd60e51b815260206004820152601660248201527514dbdd9c9e4e881514905394d1915497d1905253115160521b60448201526064016105bc565b6000610545600160701b6001600160701b0384166124ed565b6000611cdf6001600160701b03831684612516565b6001600160a01b038416611ebe5760405163e602df0560e01b8152600060048201526024016105bc565b6001600160a01b038316611ee857604051634a1406b160e11b8152600060048201526024016105bc565b6001600160a01b038085166000908152600160209081526040808320938716835292905220829055801561093c57826001600160a01b0316846001600160a01b03167f8c5be1e5ebec7d5bd14f71427d1e84f3dd0314c0f7b2291e5b200ac8c7c3b92584604051611f5b91815260200190565b60405180910390a350505050565b6001600160a01b038316611f94578060026000828254611f89919061249c565b909155506120069050565b6001600160a01b03831660009081526020819052604090205481811015611fe75760405163391434e360e21b81526001600160a01b038516600482015260248101829052604481018390526064016105bc565b6001600160a01b03841660009081526020819052604090209082900390555b6001600160a01b03821661202257600280548290039055612041565b6001600160a01b03821660009081526020819052604090208054820190555b816001600160a01b0316836001600160a01b03167fddf252ad1be2c89b69c2b068fc378daa952ba7f163c4a11628f55a4df523b3ef8360405161208691815260200190565b60405180910390a3505050565b61209d828261115a565b611ccf5760405163e2517d3f60e01b81526001600160a01b0382166004820152602481018390526044016105bc565b60065460ff166113c557604051638dfc202b60e01b815260040160405180910390fd5b60006020828403121561210157600080fd5b81356001600160e01b031981168114611cdf57600080fd5b6001600160a01b03811681146109ac57600080fd5b60008060008060006080868803121561214657600080fd5b8535945060208601359350604086013561215f81612119565b9250606086013567ffffffffffffffff81111561217b57600080fd5b8601601f8101881361218c57600080fd5b803567ffffffffffffffff8111156121a357600080fd5b8860208284010111156121b557600080fd5b959894975092955050506020019190565b60005b838110156121e15781810151838201526020016121c9565b50506000910152565b60208152600082518060208401526122098160408501602087016121c6565b601f01601f19169190910160400192915050565b6000806040838503121561223057600080fd5b823561223b81612119565b946020939093013593505050565b60008060006060848603121561225e57600080fd5b833561226981612119565b9250602084013561227981612119565b929592945050506040919091013590565b60006020828403121561229c57600080fd5b5035919050565b600080604083850312156122b657600080fd5b8235915060208301356122c881612119565b809150509250929050565b600080604083850312156122e657600080fd5b82356122f181612119565b915060208301356122c881612119565b60006020828403121561231357600080fd5b8135611cdf81612119565b634e487b7160e01b600052601160045260246000fd5b818103818111156105455761054561231e565b600181811c9082168061235b57607f821691505b60208210810361237b57634e487b7160e01b600052602260045260246000fd5b50919050565b60006020828403121561239357600080fd5b5051919050565b60208082526024908201527f536f7672793a20494e53554646494349454e545f4c49515549444954595f4d496040820152631395115160e21b606082015260800190565b80820281158282048414176105455761054561231e565b634e487b7160e01b600052601260045260246000fd5b60008261241a5761241a6123f5565b500490565b60018060a01b038616815284602082015283604082015260806060820152816080820152818360a0830137600081830160a090810191909152601f909201601f19160101949350505050565b60008261247a5761247a6123f5565b500690565b60006020828403121561249157600080fd5b8151611cdf81612119565b808201808211156105455761054561231e565b600082516124c18184602087016121c6565b9190910192915050565b6000602082840312156124dd57600080fd5b81518015158114611cdf57600080fd5b6001600160e01b03818116838216818102909216918183048114821517611b3857611b3861231e565b60006001600160e01b0383168061252f5761252f6123f5565b6001600160e01b0392909216919091049291505056fea2646970667358221220d5af4d98ab68ffb70e2eb8127056281c1f2ae08382e46fe42d6c8fc77d67eec164736f6c634300081a0033",
  "linkReferences": {},
  "deployedLinkReferences": {}
}